:100000000C9403010C94EE0F0C941F100C945010E0
:100010000C9481100C94B2100C94E3100C941411F5
:100020000C9445110C9430010C9430010C94300167
:100030000C9430010C9430010C9430010C9430017C
:100040000C9430010C9430010C9430010C9430016C
:100050000C9430010C9430010C9430010C94761106
:100060000C9430010C942E0A0C94790B0C943001F2
:100070000C9430010C9430010C9430010C9430013C
:100080000C9430010C9430010C9430010C9430012C
:100090000C946E0A0C94B80B0C9430010C94300143
:1000A0000C9430010C9430010C9430010C9430010C
:1000B0000C9430010C9430010C9430010C943001FC
:1000C0000C9430010C9430010C9430010C94AE0A65
:1000D0000C94F70B0C9430010C94ED0A0C94360C34
:1000E0000C94300100002100240027002A002D007C
:1000F0003000330001010000040107010A01000083
:100100002200250028002B002E00310034000201BF
:100110000000050108010B0100002000230026005B
:1001200029002C002F00320000010000030106010D
:10013000090105050505070508080808020202026D
:100140000A0A080804040404010101010101010173
:100150000303030303030303040707070C0C0C0C3E
:100160000C0C0C0C02020202060606060606060627
:100170000B0B0B0B0B0B0B0B0102102020080810B4
:100180002040102040800201020108040201010207
:1001900004081020408080402010080402018004E0
:1001A000020180402010080402010804020101023B
:1001B0000408102040800102040810204080000044
:1001C000090A02080B0C0D070603040100000000D9
:1001D000000000000000000000000000000000001F
:1001E0000000000000000000000011100F000000DF
:1001F00000000000000000000000000000000000FF
:1002000000000000A90D11241FBECFEFD1E2DEBF18
:10021000CDBF00E00CBF12E0A0E0B2E0EAE4FBE2F8
:1002200000E00BBF02C007900D92A03CB107D9F7C8
:100230001BBE16E0A0ECB2E001C01D92AE30B107CB
:10024000E1F712E0C6E0D2E004C02297FE010E946E
:100250009F15C430D107C9F70E94DF0E0C94A31577
:100260000C94000083ED95E040E855E260E070E01A
:100270000E94750C8FE895E040E855E260E070E080
:100280000E94750C8DE061E00E94801280E060E0C9
:100290000E94801285E060E00E94801281E060E0B0
:1002A0000E94801286E060E00E94801282E060E09E
:1002B0000E94801287E060E00E94801283E060E08C
:1002C0000E94801288E060E00E94801280E062EE6E
:1002D00079E042E050E00E946D0F81E067E979E04B
:1002E00042E050E00E946D0F82E06CE479E042E071
:1002F00050E00E946D0F83E061E079E042E050E061
:100300000E946D0F84EF91E090932903809328035E
:1003100081E08093D2020895EF92FF920F931F9392
:100320000E94BE117B018C01DC01CB0189589341F5
:10033000A040B040875E9340A040B040C0F08FE83E
:1003400098EEAFEFBFEFE80EF91E0A1F1B1F97EEE6
:10035000E91693E0F90690E0090790E0190710F418
:100360000E9464031F910F91FF90EF9008950E94E7
:100370001703E5CF0E94BE112091C1023091C20245
:100380004091C3025091C402621B730B840B950B06
:10039000695E73408040904008F408950E94BE1149
:1003A0006093C1027093C2028093C3029093C4020F
:1003B00060E08091C002882331F06093C0028DE03C
:1003C0000E944213089561E06093C0028DE00E9494
:1003D0004213F8CF0E9470080E94D5040E94BA010F
:1003E0000E948C0164E170E080E090E00E94F311D3
:1003F00008951092D1021092D2021092D30283ED8E
:1004000095E060E072E00E94470F089583ED95E06B
:1004100063E172E00E94470F089583ED95E067E283
:1004200072E00E94470F089583ED95E06AE372E061
:100430000E94470F089583ED95E06DE472E00E94FD
:10044000470F089583ED95E06FE572E00E94470F36
:10045000089583ED95E06FE672E00E94470F0895DE
:10046000EF92FF920F931F93DF93CF93CDB7DEB739
:100470002A970FB6F894DEBF0FBECDBF9E012F5F47
:100480003F4FD901E3E8F2E085E001900D92815001
:10049000E1F796E0E92EF12CEC0EFD1ED701EEE718
:1004A000F2E085E001900D928150E1F789018FE83B
:1004B00095E0F80161918F010E941F0F0E151F0535
:1004C000B1F78BE0E82EF12CEC0EFD1E8FE895E0E5
:1004D000F80161918F010E941F0F0E151F05B1F7E2
:1004E0002A960FB6F894DEBF0FBECDBFCF91DF9135
:1004F0001F910F91FF90EF900895EF92FF920F934D
:100500001F93DF93CF93CDB7DEB72A970FB6F8943A
:10051000DEBF0FBECDBF9E012F5F3F4FD901EDE87B
:10052000F2E085E001900D928150E1F746E0E42E83
:10053000F12CEC0EFD1ED701E8E8F2E085E0019019
:100540000D928150E1F789018FE895E0F801619102
:100550008F010E941F0F0E151F05B1F72BE0E22E31
:10056000F12CEC0EFD1E8FE895E0F80161918F01F2
:100570000E941F0F0E151F05B1F72A960FB6F894AB
:10058000DEBF0FBECDBFCF91DF911F910F91FF90C6
:10059000EF900895EF92FF920F931F93DF93CF9305
:1005A000CDB7DEB72A970FB6F894DEBF0FBECDBF2A
:1005B0009E012F5F3F4FD901E7E9F2E085E001900E
:1005C0000D928150E1F766E0E62EF12CEC0EFD1E57
:1005D000D701E2E9F2E085E001900D928150E1F768
:1005E00089018FE895E0F80161918F010E941F0F4A
:1005F0000E151F05B1F75BE0E52EF12CEC0EFD1E8C
:100600008FE895E0F80161918F010E941F0F0E1590
:100610001F05B1F72A960FB6F894DEBF0FBECDBF07
:10062000CF91DF911F910F91FF90EF900895EF927E
:10063000FF920F931F93DF93CF93CDB7DEB72A9727
:100640000FB6F894DEBF0FBECDBF9E012F5F3F4FA8
:10065000D901E1EAF2E085E001900D928150E1F7E5
:10066000E6E0EE2EF12CEC0EFD1ED701ECE9F2E0F7
:1006700085E001900D928150E1F789018FE895E0C6
:10068000F80161918F010E941F0F0E151F05B1F730
:100690007BE0E72EF12CEC0EFD1E8FE895E0F801D3
:1006A00061918F010E941F0F0E151F05B1F72A9649
:1006B0000FB6F894DEBF0FBECDBFCF91DF911F9173
:1006C0000F91FF90EF900895EF92FF920F931F9379
:1006D000DF93CF93CDB7DEB72A970FB6F894DEBF7E
:1006E0000FBECDBF9E012F5F3F4FD901EBEAF2E075
:1006F00085E001900D928150E1F7A6E0EA2EF12C01
:10070000EC0EFD1ED701E6EAF2E085E001900D92C5
:100710008150E1F789018FE895E0F80161918F013F
:100720000E941F0F0E151F05B1F7FBE0EF2EF12CF5
:10073000EC0EFD1E8FE895E0F80161918F010E949B
:100740001F0F0E151F05B1F72A960FB6F894DEBFDE
:100750000FBECDBFCF91DF911F910F91FF90EF9012
:1007600008958091C502882309F050C08091C60287
:10077000882309F048C08091C702882309F040C04F
:100780008091C8028823C9F58091C902882391F518
:100790008091CA02882359F58091CB02882321F5E4
:1007A0008091CC028823E9F48091CD028823B1F4B2
:1007B0008091CE02882379F48091CF02882341F47E
:1007C0008091D002882309F408950E94F9010895C8
:1007D0000E940602F5CF0E940D02EECF0E94140285
:1007E000E7CF0E941B02E0CF0E942202D9CF0E94D5
:1007F0002902D2CF0E943002CBCF0E947D02C4CF0B
:100800000E94CA02BDCF0E941703B5CF0E946403A5
:10081000ADCFEF92FF920F931F93DF93CF93CDB79E
:10082000DEB76E970FB6F894DEBF0FBECDBF9EE762
:10083000998391E39A831B8291E49C831D829BE0C0
:100840009E838F83872F992787FD9A95888769874D
:10085000852F992787FD9A958A874B87832F99271C
:1008600087FD9A958C872D87812F992787FD9A95EB
:100870008E870F878F2D992787FD9A95888BE98A18
:10088000FE01329690E09E012E5E3F4F8191980FBF
:10089000E217F307D9F79A8B8DE08B8B8E010F5FF0
:1008A0001F4F84E1E82EF12CEC0EFD1EF801619142
:1008B0008F01772767FD709583ED95E00E946D0DA0
:1008C0000E151F0599F76E960FB6F894DEBF0FBE92
:1008D000CDBFCF91DF911F910F91FF90EF900895C1
:1008E000CF92EF92FF920F931F93DF93CF93CDB7E9
:1008F000DEB76E970FB6F894DEBF0FBECDBF9EE792
:10090000998391E39A831B8292E49C831D829BE0EE
:100910009E838F83872F992787FD9A95888769877C
:10092000852F992787FD9A958A874B87832F99274B
:1009300087FD9A958C872D87812F992787FD9A951A
:100940008E870F87E88AC98AFE01329690E09E0161
:100950002E5E3F4F8191980FE217F307D9F79A8BDC
:100960008DE08B8B8E010F5F1F4FF4E1EF2EF12C8A
:10097000EC0EFD1EF80161918F01772767FD7095E0
:1009800083ED95E00E946D0D0E151F0599F76E968B
:100990000FB6F894DEBF0FBECDBFCF91DF911F9190
:1009A0000F91FF90EF90CF900895AF92BF92CF92AA
:1009B000EF92FF920F931F93CF93DF930E94BE118C
:1009C0002091DC023091DD024091DE025091DF0285
:1009D000621B730B840B950B209128033091290324
:1009E00040E050E0621773078407950750F4DF91E9
:1009F000CF911F910F91FF90EF90CF90BF90AF904C
:100A000008950E94BE116093DC027093DD02809312
:100A1000DE029093DF02609136037091370370938A
:100A2000D5026093D40220912A0330912B03309396
:100A3000D7022093D602E0913203F0913303F09372
:100A4000D902E093D802E0912E03F0912F03F093A6
:100A5000DB02E093DA021092360310923703109211
:100A600038031092390310922A0310922B0310922C
:100A70002C0310922D031092320310923303109224
:100A800034031092350310922E0310922F0310920C
:100A9000300310923103882777FD8095982F4427E3
:100AA00037FD4095542F0E949B082091E002309121
:100AB000E1022F5F3F4F3093E1022093E0028091EB
:100AC000D102882399F58091D202882309F48FCF2F
:100AD000E091D402F091D502F090D6021091D702A5
:100AE000C091D802D091D902A090DA02B090DB0276
:100AF000CF019C0197FD29C0CF01B9010E94541577
:100B0000E62E8F2D912F9C0137FD23C08F2D912F25
:100B1000B9010E945415C62E8091E002BF01AE01BA
:100B20002F2D312F85010E94700461CF822F61E04B
:100B300070E041E050E021E030E001E010E0E1E071
:100B4000EE2EF12C0E940904BECF309521953F4F27
:100B5000D3CF309521953F4FD9CF81E08093C50207
:100B60001092C6021092C7021092C8021092C902D7
:100B70001092CA021092CB021092CC021092CD02B7
:100B80001092CE021092CF021092D00208951092CD
:100B9000C50281E08093C6021092C7021092C8027B
:100BA0001092C9021092CA021092CB021092CC028B
:100BB0001092CD021092CE021092CF021092D0026B
:100BC00008951092C5021092C60281E08093C70278
:100BD0001092C8021092C9021092CA021092CB025F
:100BE0001092CC021092CD021092CE021092CF023F
:100BF0001092D00208951092C5021092C60210926F
:100C0000C70281E08093C8021092C9021092CA0202
:100C10001092CB021092CC021092CD021092CE0212
:100C20001092CF021092D00208951092C502109235
:100C3000C6021092C7021092C80281E08093C902D6
:100C40001092CA021092CB021092CC021092CD02E6
:100C50001092CE021092CF021092D00208951092FC
:100C6000C5021092C6021092C7021092C8021092DA
:100C7000C90281E08093CA021092CB021092CC028A
:100C80001092CD021092CE021092CF021092D0029A
:100C900008951092C5021092C6021092C7021092D7
:100CA000C8021092C9021092CA0281E08093CB025E
:100CB0001092CC021092CD021092CE021092CF026E
:100CC0001092D00208951092C5021092C60210929E
:100CD000C7021092C8021092C9021092CA02109262
:100CE000CB0281E08093CC021092CD021092CE0212
:100CF0001092CF021092D00208951092C502109265
:100D0000C6021092C7021092C8021092C902109235
:100D1000CA021092CB021092CC0281E08093CD02E5
:100D20001092CE021092CF021092D002089510922B
:100D3000C5021092C6021092C7021092C802109209
:100D4000C9021092CA021092CB021092CC021092E9
:100D5000CD0281E08093CE021092CF021092D00299
:100D600008951092C5021092C6021092C702109206
:100D7000C8021092C9021092CA021092CB021092BD
:100D8000CC021092CD021092CE0281E08093CF026D
:100D90001092D00208951092C5021092C6021092CD
:100DA000C7021092C8021092C9021092CA02109291
:100DB000CB021092CC021092CD021092CE02109271
:100DC000CF0281E08093D0021092D1021092D20221
:100DD0001092D30208951092C5021092C60210928A
:100DE000C7021092C8021092C9021092CA02109251
:100DF000CB021092CC021092CD021092CE02109231
:100E0000CF021092D00281E08093D1021092D202E0
:100E10001092D30208951092C5021092C602109249
:100E2000C7021092C8021092C9021092CA02109210
:100E3000CB021092CC021092CD021092CE021092F0
:100E4000CF021092D0021092D10281E08093D202A0
:100E50001092D30208951092C5021092C602109209
:100E6000C7021092C8021092C9021092CA021092D0
:100E7000CB021092CC021092CD021092CE021092B0
:100E8000CF021092D0021092D1021092D20281E0D1
:100E90008093D302089590E020E030E0482F55275A
:100EA00047FD50954750504008C09F5F292F33277A
:100EB00027FD3095241735078CF4F901E951FD4FD2
:100EC00080818E3791F78181813379F782818130FA
:100ED00061F783818E3711F49E5FE7CF892F0895E4
:100EE0000F931F93CF93DF93082F0E944B07682F18
:100EF000772767FD7095112707FD10950750104063
:100F00006017710794F4EB01C951DD4F8D81482FB3
:100F1000552747FD5095DA01A60FB71FA951BD4FC0
:100F200017968C9117978D3031F080E0DF91CF913B
:100F30001F910F9108958FEF4C3F58070CF493C009
:100F400090E0E1E0F0E022E030E0495F5F4FE951FE
:100F5000FD4FE60FF71F8081980FF9012F5F3F4F7C
:100F600024173507A1F716968C918917F1F68B8116
:100F7000803289F081329CF4833009F45CC0843083
:100F8000FCF4813009F45BC082300CF46EC00E9426
:100F9000E10581E0CBCF0E94630681E0C7CF8034BA
:100FA000B1F18134D4F4803309F451C0813309F4B0
:100FB0004AC0813209F0B9CF0E947D0681E0B6CFE8
:100FC000803109F44CC0813109F445C0843009F006
:100FD000ACCF0E94150681E0A9CF823421F1823482
:100FE000D4F0833409F0A1CF0E942B078091EC024A
:100FF000813009F09ACF8091ED0224E68202C0018F
:101000001124909329038093280381E08FCF0E94BD
:10101000CB0681E08BCF0E94EB068091EC02813001
:1010200009F083CFE8CF0E940B078091EC0281305A
:1010300009F07BCFE0CF0E94FB0581E077CF0E94D3
:10104000C70581E073CF0E94B10681E06FCF0E9497
:10105000970681E06BCF0E94490681E067CF0E942E
:101060002F0681E063CF90E07ECF882309F05DCF2B
:101070000E94AD0581E05ACF0F931F9301E083EDED
:1010800095E00E94040D892BF1F01091270383ED68
:1010900095E00E94360DE12FFF27E7FDF095E9511D
:1010A000FD4F80831F5F10932703133244F3009397
:1010B000E60283ED95E00E94600D83ED95E00E94CD
:1010C000040D892B11F70E94BE116093E202709308
:1010D000E3028093E4029093E5021F910F9108953B
:1010E00080912703882309F408950E94BE1120915E
:1010F000E2023091E3024091E4025091E502621B6A
:10110000730B840B950B663071058105910560F3B7
:101110001092E602809127030E947007882329F02D
:101120000E94B10310922703089583ED95E064E0D7
:101130000E946D0DF7CFEF92FF920F931F93261B26
:10114000370B480B590BCA01B90128E230E040E0E7
:1011500050E00E9435150E941E1420E030E249E95B
:1011600056E40E94B41320E030E044E353E40E94CC
:10117000D2142BED3FE049E450E40E94B4137B010C
:101180008C012DEC3CEC4CE45EE30E94CE1418166E
:1011900064F1C801B7012DEC3CEC4CE45EE30E9425
:1011A000B013181664F410923C0381E080933B0363
:1011B00010923A031F910F91FF90EF900895C8018C
:1011C000B7012DEC3CEC4CE45EEB0E94CE1488237E
:1011D00054F310923C0310923B0381E080933A0356
:1011E0001F910F91FF90EF90089581E080933C0351
:1011F00010923B0310923A031F910F91FF90EF90D2
:1012000008950E94CC1120913D0330913E034091FE
:101210003F0350914003621B730B840B950B6330AB
:1012200071058105910508F4089588E00E947813FE
:10123000892BF1F080912E0390912F03A091300320
:10124000B09131030196A11DB11D80932E0390939F
:101250002F03A0933003B09331030E94CC1160930D
:101260003D0370933E0380933F03909340030895A2
:1012700080912E0390912F03A0913003B091310300
:101280000197A109B10980932E0390932F03A09396
:101290003003B0933103E1CF0E94CC112091410380
:1012A000309142034091430350914403621B730BFE
:1012B000840B950B633071058105910508F4089541
:1012C00087E00E947813892BF1F080912A03909196
:1012D0002B03A0912C03B0912D030196A11DB11DEC
:1012E00080932A0390932B03A0932C03B0932D0398
:1012F0000E94CC1160934103709342038093430397
:1013000090934403089580912A0390912B03A09118
:101310002C03B0912D030197A109B10980932A03F1
:1013200090932B03A0932C03B0932D03E1CF0E9445
:10133000CC112091450330914603409147035091D1
:101340004803621B730B840B950B63307105810599
:10135000910508F4089586E00E947813892BF1F036
:101360008091320390913303A0913403B0913503FF
:101370000197A109B1098093320390933303A0939D
:101380003403B09335030E94CC11609345037093EE
:101390004603809347039093480308958091320356
:1013A00090913303A0913403B09135030196A11DB0
:1013B000B11D8093320390933303A0933403B09311
:1013C0003503E1CF0E94CC112091490330914A03AB
:1013D00040914B0350914C03621B730B840B950B94
:1013E000633071058105910508F4089585E00E9438
:1013F0007813892BF1F08091360390913703A091F7
:101400003803B09139030197A109B10980933603DC
:1014100090933703A0933803B09339030E94CC1103
:101420006093490370934A0380934B0390934C035A
:1014300008958091360390913703A0913803B091BD
:1014400039030196A11DB11D809336039093370394
:10145000A0933803B0933903E1CF08951F920F9200
:101460000FB60F920BB60F9211242F933F934F9309
:101470008F939F93EF93FF938091C00082FD2AC0CA
:101480004091C60020918D0330918E032F5F3F4F16
:101490002F73307080918F03909190032817390734
:1014A00059F0E0918D03F0918E03E35BFC4F408394
:1014B00030938E0320938D03FF91EF919F918F9135
:1014C0004F913F912F910F900BBE0F900FBE0F9039
:1014D0001F9018958091C600EFCF08951F920F922C
:1014E0000FB60F920BB60F9211242F933F934F9389
:1014F0008F939F93EF93FF938091C80082FD2AC042
:101500004091CE0020911504309116042F5F3F4F7B
:101510002F733070809117049091180428173907A1
:1015200059F0E0911504F0911604EB52FC4F408302
:101530003093160420931504FF91EF919F918F91A2
:101540004F913F912F910F900BBE0F900FBE0F90B8
:101550001F9018958091CE00EFCF08951F920F92A3
:101560000FB60F920BB60F9211242F933F934F9308
:101570008F939F93EF93FF938091D00082FD2AC0B9
:101580004091D60020919D0430919E042F5F3F4FE3
:101590002F73307080919F049091A0042817390711
:1015A00059F0E0919D04F0919E04E35AFB4F408373
:1015B00030939E0420939D04FF91EF919F918F9112
:1015C0004F913F912F910F900BBE0F900FBE0F9038
:1015D0001F9018958091D600EFCF1F920F920FB6F3
:1015E0000F920BB60F9211242F933F934F938F932B
:1015F0009F93EF93FF938091300182FD2AC0409129
:10160000360120912505309126052F5F3F4F2F731E
:10161000307080912705909128052817390759F0D7
:10162000E0912505F0912605EB51FB4F4083309367
:10163000260520932505FF91EF919F918F914F9162
:101640003F912F910F900BBE0F900FBE0F901F90E8
:10165000189580913601EFCFE0917905F0917A05E8
:10166000E05CFF4F8191919120813181821B930B2E
:101670008F739070892BD1F5E0919B05F0919C05BB
:10168000E05CFF4F8191919120813181821B930B0E
:101690008F739070892B39F5E091BD05F091BE05EF
:1016A000E05CFF4F8191919120813181821B930BEE
:1016B0008F739070892BA1F4E091DF05F091E00524
:1016C000E05CFF4F8191919120813181821B930BCE
:1016D0008F739070892B09F408950E943C08089537
:1016E0000E94AD0AE9CF0E946D0AD6CF0E942D0A52
:1016F000C3CF1F920F920FB60F920BB60F92112409
:101700002F933F938F939F93EF93FF932091D10358
:101710003091D2038091D3039091D40328173907D5
:1017200009F1E091D303F091D403EF56FC4F2081EF
:101730008091D3039091D40301968F73907090930E
:10174000D4038093D3032093C600FF91EF919F9120
:101750008F913F912F910F900BBE0F900FBE0F9066
:101760001F9018958091C1008F7D8093C100EDCFAF
:101770001F920F920FB60F920BB60F9211242F9358
:101780003F938F939F93EF93FF9320915904309150
:101790005A0480915B0490915C042817390709F181
:1017A000E0915B04F0915C04E75EFB4F2081809147
:1017B0005B0490915C0401968F73907090935C042D
:1017C00080935B042093CE00FF91EF919F918F91C6
:1017D0003F912F910F900BBE0F900FBE0F901F9057
:1017E00018958091C9008F7D8093C900EDCF1F921D
:1017F0000F920FB60F920BB60F9211242F933F93B7
:101800008F939F93EF93FF932091E1043091E20433
:101810008091E3049091E4042817390709F1E091DD
:10182000E304F091E404EF55FB4F20818091E30441
:101830009091E40401968F7390709093E4048093E8
:10184000E3042093D600FF91EF919F918F913F91F8
:101850002F910F900BBE0F900FBE0F901F901895F9
:101860008091D1008F7D8093D100EDCF1F920F9298
:101870000FB60F920BB60F9211242F933F938F93B5
:101880009F93EF93FF932091690530916A058091B2
:101890006B0590916C052817390709F1E0916B05EC
:1018A000F0916C05E75DFA4F208180916B05909176
:1018B0006C0501968F73907090936C0580936B0507
:1018C00020933601FF91EF919F918F913F912F913E
:1018D0000F900BBE0F900FBE0F901F901895809128
:1018E00031018F7D80933101EDCFDF92EF92FF9236
:1018F0000F931F93CF93DF93EC017A018B01DD24CB
:10190000403081EE580780E0680780E0780721F1D9
:10191000DD24D394EC89FD8981E090E008A002C029
:10192000880F991F0A94E2F7808360E079E08DE3E5
:1019300090E0A80197010E94671521503040404077
:101940005040569547953795279580E120303807C8
:10195000D0F0DD20C1F0DD24EC89FD89108260E843
:1019600074E88EE190E0A80197010E94671521506C
:10197000304040405040569547953795279580E137
:101980002030380730F7E889F9893083EA89FB8904
:10199000208319A2EE89FF89408121E030E0C9014E
:1019A0000C8C02C0880F991F0A94E2F7482B4083E1
:1019B000EE89FF894081C9010D8C02C0880F991FF3
:1019C0000A94E2F7482B4083EE89FF894081C901E0
:1019D0000E8C02C0880F991F0A94E2F7482B4083AF
:1019E000EE89FF8980810F8C02C0220F331F0A9479
:1019F000E2F7209528232083DF91CF911F910F914B
:101A0000FF90EF90DF900895DC011C96ED91FC9122
:101A10001D97E05CFF4F2191319180819181281BBE
:101A2000390B2F733070C9010895DC011C96ED91BC
:101A3000FC911D97E05CFF4F20813181E054F04024
:101A4000DF01AE5BBF4F8D919C911197281739072D
:101A500049F08D919C91E80FF91F8081282F30E08B
:101A6000C90108952FEF3FEFC9010895DC011C96CD
:101A7000ED91FC911D97E05CFF4F20813181E05496
:101A8000F040DF01AE5BBF4F8D919C9111972817FD
:101A9000390791F08D919C911197E80FF91F2081E2
:101AA0008D919C91119701968F73907011969C93D4
:101AB0008E9330E0C90108952FEF3FEFC9010895DB
:101AC000FC0181A1882311F411A20895A489B5898C
:101AD0008C9186FFFDCF11A20895CF93DF93EC0187
:101AE000AE85BF85AD01405C5F4FFA012081318139
:101AF0002F5F3F4F2F733070FD01EE5BFF4F8081F2
:101B0000918128173907D9F3FA0180819181A80FB3
:101B1000B91F6C93EE85FF85E05CFF4F3183208316
:101B2000EE89FF89208181E090E00F8C02C0880F50
:101B3000991F0A94E2F7282B208381E089A3EC897E
:101B4000FD8980818064808381E090E0DF91CF9186
:101B500008951F931092700510926F0528EE33E0E0
:101B600040E050E020937105309372054093730577
:101B70005093740564EB72E070936E0560936D058D
:101B80008DE493E090937A058093790581E993E061
:101B900090937C0580937B0585EC90E090937E0587
:101BA00080937D0584EC90E09093800580937F0581
:101BB00080EC90E0909382058093810581EC90E029
:101BC000909384058093830582EC90E09093860542
:101BD0008093850586EC90E0909388058093870537
:101BE00014E010938905B3E0B0938A05A7E0A093B1
:101BF0008B05F5E0F0938C05E1E0E0938D05109204
:101C0000920510929105209393053093940540938B
:101C10009505509396057093900560938F0585ED1B
:101C200093E090939C0580939B0589E194E09093C9
:101C30009E0580939D058DEC90E09093A005809388
:101C40009F058CEC90E09093A2058093A10588EC11
:101C500090E09093A4058093A30589EC90E0909385
:101C6000A6058093A5058AEC90E09093A805809343
:101C7000A7058EEC90E09093AA058093A905109398
:101C8000AB05B093AC05A093AD05F093AE05E09322
:101C9000AF051092B4051092B3052093B5053093AB
:101CA000B6054093B7055093B8057093B20560939D
:101CB000B1058DE594E09093BE058093BD0581EA62
:101CC00094E09093C0058093BF0585ED90E09093DC
:101CD000C2058093C10584ED90E09093C405809384
:101CE000C30580ED90E09093C6058093C50581ED16
:101CF00090E09093C8058093C70582ED90E09093A3
:101D0000CA058093C90586ED90E09093CC05809339
:101D1000CB051093CD05B093CE05A093CF05F093DE
:101D2000D005E093D1051092D6051092D5052093E9
:101D3000D7053093D8054093D9055093DA057093B1
:101D4000D4056093D30585EE94E09093E0058093ED
:101D5000DF0589E295E09093E2058093E10585E354
:101D600091E09093E4058093E30584E391E0909300
:101D7000E6058093E50580E391E09093E805809384
:101D8000E70581E391E09093EA058093E90582E31A
:101D900091E09093EC058093EB0586E391E09093BE
:101DA000EE058093ED051093EF05B093F005A09339
:101DB000F105F093F205E093F3051F9108950E9459
:101DC0001E120E9432010E94EA018CE29BE0892BE4
:101DD00029F00E942C0B0E94EA01FBCF0E94EA012D
:101DE0000E94EA01FBCFCF92DF92EF92FF920F9316
:101DF0001F93CF93DF937C016B01EA0141155105DD
:101E0000D9F000E010E0D6016D916D01D701ED91A0
:101E1000FC910190F081E02DC7011995080F191F61
:101E2000219789F7C801DF91CF911F910F91FF9002
:101E3000EF90DF90CF90089500E010E0F3CFDC0149
:101E4000ED91FC910190F081E02D19950895EF92AC
:101E5000FF920F931F938C01DC01ED91FC91019097
:101E6000F081E02D6DE019957C01D801ED91FC9198
:101E70000190F081E02DC8016AE019959C012E0DBA
:101E80003F1DC9011F910F91FF90EF9008950F938F
:101E90001F93CF93DF93EC0161157105D9F0DB013E
:101EA0000D900020E9F71197A61BB70BE881F98187
:101EB0000280F381E02DAD0119958C01CE010E94C5
:101EC000270F9801280F391FC901DF91CF911F916A
:101ED0000F91089500E010E0F1CF883098F5E82FD9
:101EE000F0E0EE0FFF1FEB50FA4F718360838330F9
:101EF000B1F1843040F1853009F44BC0853070F485
:101F00008091690042955295507F5427407F542715
:101F10008F7C842B80936900EA9A0895863059F16A
:101F2000873081F480916A00002456954795079484
:101F3000569547950794542F402D8F73842B80938B
:101F40006A00EF9A08958130E9F1823098F180912A
:101F500069008C7F842B80936900E89A08958091B2
:101F60006900440F551F440F551F837F842B8093B6
:101F70006900E99A089580916A0042955295507FD0
:101F80005427407F54278F7C842B80936A00EE9ADD
:101F900008958091690000245695479507945695B9
:101FA00047950794542F402D8F73842B809369009D
:101FB000EB9A089580916A008C7F842B80936A004D
:101FC000EC9A089580916A00440F551F440F551FE5
:101FD000837F842B80936A00ED9A08951F920F925D
:101FE0000FB60F920BB60F9211242F933F934F937E
:101FF0005F936F937F938F939F93AF93BF93EF9371
:10200000FF938091F9059091FA05892B29F0E091D1
:10201000F905F091FA051995FF91EF91BF91AF91F4
:102020009F918F917F916F915F914F913F912F91F0
:102030000F900BBE0F900FBE0F901F9018951F9220
:102040000F920FB60F920BB60F9211242F933F935E
:102050004F935F936F937F938F939F93AF93BF93B0
:10206000EF93FF938091FB059091FC05892B29F05C
:10207000E091FB05F091FC051995FF91EF91BF915F
:10208000AF919F918F917F916F915F914F913F9110
:102090002F910F900BBE0F900FBE0F901F901895B1
:1020A0001F920F920FB60F920BB60F9211242F931F
:1020B0003F934F935F936F937F938F939F93AF93D0
:1020C000BF93EF93FF938091FD059091FE05892BBF
:1020D00029F0E091FD05F091FE051995FF91EF9132
:1020E000BF91AF919F918F917F916F915F914F9130
:1020F0003F912F910F900BBE0F900FBE0F901F902E
:1021000018951F920F920FB60F920BB60F921124D3
:102110002F933F934F935F936F937F938F939F93EF
:10212000AF93BF93EF93FF938091FF0590910006CB
:10213000892B29F0E091FF05F09100061995FF9198
:10214000EF91BF91AF919F918F917F916F915F912F
:102150004F913F912F910F900BBE0F900FBE0F909C
:102160001F9018951F920F920FB60F920BB60F92F9
:1021700011242F933F934F935F936F937F938F938C
:102180009F93AF93BF93EF93FF938091F505909149
:10219000F605892B29F0E091F505F091F6051995E2
:1021A000FF91EF91BF91AF919F918F917F916F912F
:1021B0005F914F913F912F910F900BBE0F900FBEEB
:1021C0000F901F9018951F920F920FB60F920BB69B
:1021D0000F9211242F933F934F935F936F937F93AD
:1021E0008F939F93AF93BF93EF93FF938091F705E6
:1021F0009091F805892B29F0E091F705F091F80509
:102200001995FF91EF91BF91AF919F918F917F9120
:102210006F915F914F913F912F910F900BBE0F9057
:102220000FBE0F901F9018951F920F920FB60F922E
:102230000BB60F9211242F933F934F935F936F939D
:102240007F938F939F93AF93BF93EF93FF9380916F
:10225000010690910206892B29F0E0910106F09188
:1022600002061995FF91EF91BF91AF919F918F91C8
:102270007F916F915F914F913F912F910F900BBE86
:102280000F900FBE0F901F9018951F920F920FB6D0
:102290000F920BB60F9211242F933F934F935F939E
:1022A0006F937F938F939F93AF93BF93EF93FF931E
:1022B0008091030690910406892B29F0E091030692
:1022C000F09104061995FF91EF91BF91AF919F9105
:1022D0008F917F916F915F914F913F912F910F90CF
:1022E0000BBE0F900FBE0F901F9018951F920F926C
:1022F0000FB60F9211242F933F938F939F93AF9319
:10230000BF938091090690910A06A0910B06B091A7
:102310000C0630910D060196A11DB11D232F2D5FD6
:102320002D3720F02D570196A11DB11D20930D06CC
:102330008093090690930A06A0930B06B0930C06AF
:102340008091050690910606A0910706B0910806B7
:102350000196A11DB11D8093050690930606A093DA
:102360000706B0930806BF91AF919F918F913F915F
:102370002F910F900FBE0F901F9018958FB7F89464
:102380002091090630910A0640910B0650910C06E7
:102390008FBFB901CA0108959FB7F894209105062F
:1023A00030910606409107065091080686B5A89B15
:1023B00006C08F3F21F02F5F3F4F4F4F5F4F9FBFB2
:1023C000542F432F322F2227280F311D411D511D1D
:1023D000220F331F441F551F220F331F441F551F49
:1023E000B901CA010895EF92FF920F931F93CF9303
:1023F000DF937B018C010E94CC11E114F1040105F3
:102400001105A9F0EB010E94CC116C1B7D0B685EDD
:102410007340C8F30894E108F10801091109E114B7
:10242000F1040105110519F0C851DC4FECCFDF9123
:10243000CF911F910F91FF90EF900895789484B5FC
:10244000826084BD84B5816084BD85B5826085BDB0
:1024500085B5816085BDEEE6F0E080818160808396
:10246000E1E8F0E010828081826080838081816079
:102470008083E0E8F0E0808181608083E1EBF0E040
:10248000808184608083E0EBF0E0808181608083E4
:10249000E1E9F0E0808182608083808181608083D7
:1024A000E0E9F0E0808181608083E1EAF0E0808112
:1024B00082608083808181608083E0EAF0E08081B7
:1024C00081608083E1E2F1E08081826080838081AD
:1024D00081608083E0E2F1E0808181608083EAE7CF
:1024E000F0E080818460808380818260808380814D
:1024F000816080838081806880831092C10008950C
:10250000CF93DF93482F50E0CA0188589E4FFC01BB
:1025100034914E5C5E4FFA0184918823B9F090E0CB
:10252000880F991FFC01EC51FF4FA591B491FC015C
:10253000E250FF4FC591D491662359F06230B9F053
:102540009FB7F8948C91832B8C939FBFDF91CF9191
:1025500008952FB7F8948C91932F909589238C939D
:102560008881892388832FBFDF91CF9108952FB76A
:10257000F8948C91932F909589238C938881832B49
:1025800088832FBFE3CF893009F45EC08A3070F0B2
:102590008D3009F45FC08E30D0F0803109F46CC00A
:1025A000813109F463C08F30C9F10895843009F492
:1025B00045C08530B8F08730B9F1883048F58630AD
:1025C000A1F78091B0008F778093B00008958B3091
:1025D00009F446C08C30B0F08091A0008F7D8093CC
:1025E000A0000895823031F1833030F48130E9F673
:1025F00084B58F7784BD0895809180008F77809314
:102600008000089580919000877F809390000895C6
:10261000809190008F7780939000089580912001A1
:102620008F778093200108958091B0008F7D8093F3
:10263000B000089584B58F7D84BD08958091800099
:102640008F7D809380000895809190008F7D80938E
:10265000900008958091A000877F8093A000089546
:102660008091A0008F778093A00008958091200131
:10267000877F809320010895809120018F7D809332
:1026800020010895FF920F931F93F62E482F50E0DC
:10269000CA0182549E4FFC012491CA0188589E4F62
:1026A000FC0104914E5C5E4FFA011491112399F0E4
:1026B0002223D1F4E12FF0E0EE0FFF1FE250FF4F95
:1026C000A591B4919FB7F894FF2049F48C9100959F
:1026D00080238C939FBF1F910F91FF9008958C9141
:1026E000802B8C939FBFF7CF822F0E94C312E2CF23
:1026F0000F931F93482F50E0CA0182549E4FFC0154
:102700002491CA0188589E4FFC0104914E5C5E4F93
:10271000FA0114911123D1F02223F1F4812F90E0DA
:10272000880F991F885E9E4FFC01A591B4918C91F2
:1027300020E030E0802321F4C9011F910F9108951A
:1027400021E030E0C9011F910F91089520E030E0B1
:10275000C9011F910F910895822F0E94C312DECFED
:10276000A8D008F481E008950CD0DEC0D6D040F0A7
:10277000CDD030F021F45F3F19F0BFC0511108C136
:10278000C2C0E3D098F39923C9F35523B1F3951B45
:10279000550BBB27AA2762177307840738F09F5F82
:1027A0005F4F220F331F441FAA1FA9F333D00E2EF1
:1027B0003AF0E0E830D091505040E695001CCAF75E
:1027C00029D0FE2F27D0660F771F881FBB1F261723
:1027D00037074807AB07B0E809F0BB0B802DBF01F6
:1027E000FF2793585F4F2AF09E3F510568F085C040
:1027F000CFC05F3FECF3983EDCF386957795679505
:10280000B795F7959F5FC9F7880F911D96958795A6
:1028100097F90895E1E0660F771F881FBB1F6217C5
:1028200073078407BA0720F0621B730B840BBA0B83
:10283000EE1F88F7E0950895E89409C097FB3EF4F1
:1028400090958095709561957F4F8F4F9F4F9923FD
:10285000A9F0F92F96E9BB279395F695879577957B
:102860006795B795F111F8CFFAF4BB0F11F460FF3B
:102870001BC06F5F7F4F8F4F9F4F16C0882311F093
:1028800096E911C0772321F09EE8872F762F05C0A7
:10289000662371F096E8862F70E060E02AF09A9542
:1028A000660F771F881FDAF7880F9695879597F937
:1028B0000895990F0008550FAA0BE0E8FEEF1616D1
:1028C0001706E807F907C0F012161306E407F50724
:1028D00098F0621B730B840B950B39F40A2661F098
:1028E000232B242B252B21F408950A2609F4A1403B
:1028F000A6958FEF811D811D089597F99F6780E848
:1029000070E060E008959FEF80EC089500240A9441
:102910001616170618060906089500240A941216BA
:102920001306140605060895092E0394000C11F4ED
:10293000882352F0BB0F40F4BF2B11F460FF04C09A
:102940006F5F7F4F8F4F9F4F089557FD9058440FF3
:10295000551F59F05F3F71F04795880F97FB991FFE
:1029600061F09F3F79F087950895121613061406BB
:10297000551FF2CF4695F1DF08C016161706180648
:10298000991FF1CF86957105610508940895E89423
:10299000BB2766277727CB0197F908958ADF08F4CC
:1029A0008FEF08950BD0C0CFB1DF28F0B6DF18F05D
:1029B000952309F0A2CFA7CF1124EACFC6DFA0F359
:1029C000959FD1F3950F50E0551F629FF001729FC4
:1029D000BB27F00DB11D639FAA27F00DB11DAA1FE3
:1029E000649F6627B00DA11D661F829F2227B00D30
:1029F000A11D621F739FB00DA11D621F839FA00DBB
:102A0000611D221F749F3327A00D611D231F849F0A
:102A1000600D211D822F762F6A2F11249F57504061
:102A20008AF0E1F088234AF0EE0FFF1FBB1F661FFC
:102A3000771F881F91505040A9F79E3F510570F0B5
:102A40005CCFA6CF5F3FECF3983EDCF3869577959D
:102A50006795B795F795E7959F5FC1F7FE2B880FB0
:102A6000911D9695879597F90895629FD001739F60
:102A7000F001829FE00DF11D649FE00DF11D929F1A
:102A8000F00D839FF00D749FF00D659FF00D992759
:102A9000729FB00DE11DF91F639FB00DE11DF91F7D
:102AA000BD01CF011124089597FB092E07260AD0F6
:102AB00077FD04D02ED006D000201AF470956195D1
:102AC0007F4F0895F6F7909581959F4F0895A1E265
:102AD0001A2EAA1BBB1BFD010DC0AA1FBB1FEE1F98
:102AE000FF1FA217B307E407F50720F0A21BB30BE3
:102AF000E40BF50B661F771F881F991F1A9469F75F
:102B000060957095809590959B01AC01BD01CF01BA
:102B10000895AA1BBB1B51E107C0AA1FBB1FA61724
:102B2000B70710F0A61BB70B881F991F5A95A9F776
:102B300080959095BC01CD010895EE0FFF1F059083
:0A2B4000F491E02D1994F894FFCFF2
:102B4A004361726D656C612053746F705265706C6D
:102B5A007921004361726D656C61205269676874FE
:102B6A00416E676C6521004361726D656C61204C32
:102B7A00656674416E676C6521004361726D656CB0
:102B8A0061205049444E506F6C617221004361725A
:102B9A006D656C6120504944506F6C61722100432D
:102BAA0061726D656C61205049444E585921004349
:102BBA0061726D656C612050494458592100AA829E
:102BCA00043036AA82013033AA82053037AA82003D
:102BDA003032AA82053037AA82013033AA82043001
:102BEA0036AA82003032AA82040006AA82000002B3
:102BFA00000000006D0DF30E040D360D150D600D6D
:00000001FF
